{
  "contractName": "JKPAdapter",
  "abi": [
    {
      "inputs": [],
      "stateMutability": "nonpayable",
      "type": "constructor"
    },
    {
      "inputs": [],
      "name": "owner",
      "outputs": [
        {
          "internalType": "address",
          "name": "",
          "type": "address"
        }
      ],
      "stateMutability": "view",
      "type": "function"
    },
    {
      "inputs": [
        {
          "internalType": "address",
          "name": "newImplementation",
          "type": "address"
        }
      ],
      "name": "upgrade",
      "outputs": [],
      "stateMutability": "nonpayable",
      "type": "function"
    }
  ],
  "bytecode": "0x60a060405234801561001057600080fd5b50336080526080516101ee6100356000396000818160550152609e01526101ee6000f3fe608060405234801561001057600080fd5b50600436106100365760003560e01c80630900f0101461003b5780638da5cb5b14610050575b600080fd5b61004e610049366004610188565b610093565b005b6100777f000000000000000000000000000000000000000000000000000000000000000081565b6040516001600160a01b03909116815260200160405180910390f35b336001600160a01b037f000000000000000000000000000000000000000000000000000000000000000016146101105760405162461bcd60e51b815260206004820152601860248201527f596f7520646f6e742068617665207065726d697373696f6e000000000000000060448201526064015b60405180910390fd5b6001600160a01b0381166101665760405162461bcd60e51b815260206004820152601b60248201527f456d7074792061646472657373206e6f74207065726d697474656400000000006044820152606401610107565b600080546001600160a01b0319166001600160a01b0392909216919091179055565b60006020828403121561019a57600080fd5b81356001600160a01b03811681146101b157600080fd5b939250505056fea2646970667358221220aac8967ddef6009e1dccce179b5b81065d43631889b2093ee088938c758034bc64736f6c63430008130033",
  "immutableReferences": {
    "64": [
      {
        "length": 32,
        "start": 85
      },
      {
        "length": 32,
        "start": 158
      }
    ]
  },
  "source": "// SPDX-License-Identifier: MIT\r\n\r\npragma solidity ^0.8.19.0;\r\n\r\nimport { IJoKenPo } from  \"./IJoKenPo.sol\";\r\n\r\ncontract JKPAdapter {\r\n  IJoKenPo private joKenPo;\r\n  address public immutable owner;\r\n\r\n  constructor() {\r\n        owner = payable(msg.sender);\r\n    }\r\n\r\n    function upgrade(address newImplementation) external {\r\n      require(msg.sender == owner, \"You dont have permission\");\r\n      require(newImplementation != address(0), \"Empty address not permitted\");\r\n      joKenPo = IJoKenPo(newImplementation);\r\n    }\r\n}",
  "sourcePath": "D:\\workspace\\WEB3-BLOCKCHAIN-Projects\\jokenpo\\on-chain\\contracts\\JKPAdapter.sol",
  "compiler": {
    "name": "solc",
    "version": "0.8.19+commit.7dd6d404.Emscripten.clang"
  },
  "schemaVersion": "3.4.14",
  "updatedAt": "2023-05-23T02:33:00.926Z",
  "devdoc": {
    "kind": "dev",
    "methods": {},
    "version": 1
  },
  "userdoc": {
    "kind": "user",
    "methods": {},
    "version": 1
  }
}