{
  "contractName": "JKPAdapter",
  "abi": [
    {
      "inputs": [],
      "stateMutability": "nonpayable",
      "type": "constructor"
    },
    {
      "anonymous": false,
      "inputs": [
        {
          "indexed": true,
          "internalType": "address",
          "name": "player",
          "type": "address"
        },
        {
          "indexed": false,
          "internalType": "string",
          "name": "result",
          "type": "string"
        }
      ],
      "name": "Played",
      "type": "event"
    },
    {
      "inputs": [],
      "name": "owner",
      "outputs": [
        {
          "internalType": "address",
          "name": "",
          "type": "address"
        }
      ],
      "stateMutability": "view",
      "type": "function",
      "constant": true
    },
    {
      "inputs": [],
      "name": "getAddress",
      "outputs": [
        {
          "internalType": "address",
          "name": "",
          "type": "address"
        }
      ],
      "stateMutability": "view",
      "type": "function",
      "constant": true
    },
    {
      "inputs": [],
      "name": "getResult",
      "outputs": [
        {
          "internalType": "string",
          "name": "",
          "type": "string"
        }
      ],
      "stateMutability": "view",
      "type": "function",
      "constant": true
    },
    {
      "inputs": [],
      "name": "getBid",
      "outputs": [
        {
          "internalType": "uint256",
          "name": "",
          "type": "uint256"
        }
      ],
      "stateMutability": "view",
      "type": "function",
      "constant": true
    },
    {
      "inputs": [],
      "name": "getCommission",
      "outputs": [
        {
          "internalType": "uint8",
          "name": "",
          "type": "uint8"
        }
      ],
      "stateMutability": "view",
      "type": "function",
      "constant": true
    },
    {
      "inputs": [
        {
          "internalType": "uint256",
          "name": "newBid",
          "type": "uint256"
        }
      ],
      "name": "setBid",
      "outputs": [],
      "stateMutability": "nonpayable",
      "type": "function"
    },
    {
      "inputs": [
        {
          "internalType": "uint8",
          "name": "newCommission",
          "type": "uint8"
        }
      ],
      "name": "setCommission",
      "outputs": [],
      "stateMutability": "nonpayable",
      "type": "function"
    },
    {
      "inputs": [],
      "name": "getBalance",
      "outputs": [
        {
          "internalType": "uint256",
          "name": "",
          "type": "uint256"
        }
      ],
      "stateMutability": "view",
      "type": "function",
      "constant": true
    },
    {
      "inputs": [
        {
          "internalType": "enum JKPLibrary.Options",
          "name": "newChoice",
          "type": "uint8"
        }
      ],
      "name": "play",
      "outputs": [],
      "stateMutability": "payable",
      "type": "function",
      "payable": true
    },
    {
      "inputs": [],
      "name": "getLeaderBoard",
      "outputs": [
        {
          "components": [
            {
              "internalType": "address",
              "name": "wallet",
              "type": "address"
            },
            {
              "internalType": "uint32",
              "name": "wins",
              "type": "uint32"
            }
          ],
          "internalType": "struct JKPLibrary.Winner[]",
          "name": "",
          "type": "tuple[]"
        }
      ],
      "stateMutability": "view",
      "type": "function",
      "constant": true
    },
    {
      "inputs": [
        {
          "internalType": "address",
          "name": "newImplementation",
          "type": "address"
        }
      ],
      "name": "upgrade",
      "outputs": [],
      "stateMutability": "nonpayable",
      "type": "function"
    }
  ],
  "bytecode": "0x60a060405234801561001057600080fd5b5033608052608051610bf061004c60003960008181610177015281816102260152818161036e0152818161051701526106350152610bf06000f3fe60806040526004361061009c5760003560e01c80638a44810d116100645780638a44810d146101455780638da5cb5b14610165578063c29d72bc14610199578063cef55b9a146101bb578063de292789146101db578063e65d6b49146101fd57600080fd5b80630900f010146100a1578063099a019d146100c357806312065fe0146100eb57806338cc48311461010057806353a04b0514610132575b600080fd5b3480156100ad57600080fd5b506100c16100bc3660046107f8565b610224565b005b3480156100cf57600080fd5b506100d86102ed565b6040519081526020015b60405180910390f35b3480156100f757600080fd5b506100d861036a565b34801561010c57600080fd5b506000546001600160a01b03165b6040516001600160a01b0390911681526020016100e2565b6100c161014036600461081c565b610405565b34801561015157600080fd5b506100c161016036600461084c565b610515565b34801561017157600080fd5b5061011a7f000000000000000000000000000000000000000000000000000000000000000081565b3480156101a557600080fd5b506101ae6105c2565b6040516100e29190610869565b3480156101c757600080fd5b506100c16101d63660046108c7565b610633565b3480156101e757600080fd5b506101f06106ac565b6040516100e29190610904565b34801561020957600080fd5b5061021261076b565b60405160ff90911681526020016100e2565b7f00000000000000000000000000000000000000000000000000000000000000006001600160a01b031633146102755760405162461bcd60e51b815260040161026c90610937565b60405180910390fd5b6001600160a01b0381166102cb5760405162461bcd60e51b815260206004820152601b60248201527f456d7074792061646472657373206e6f74207065726d69747465640000000000604482015260640161026c565b600080546001600160a01b0319166001600160a01b0392909216919091179055565b60008060009054906101000a90046001600160a01b03166001600160a01b031663099a019d6040518163ffffffff1660e01b8152600401602060405180830381865afa158015610341573d6000803e3d6000fd5b505050506040513d601f19601f82011682018060405250810190610365919061096e565b905090565b60007f00000000000000000000000000000000000000000000000000000000000000006001600160a01b031633146103b45760405162461bcd60e51b815260040161026c90610937565b60008054906101000a90046001600160a01b03166001600160a01b03166312065fe06040518163ffffffff1660e01b8152600401602060405180830381865afa158015610341573d6000803e3d6000fd5b6000546001600160a01b03166104545760405162461bcd60e51b8152602060048201526014602482015273141b19585cd9481d5c19dc98591948199a5c9cdd60621b604482015260640161026c565b600080546040516353a04b0560e01b81526001600160a01b03909116906353a04b05903490610487908690600401610987565b60006040518083038185885af11580156104a5573d6000803e3d6000fd5b50505050506040513d6000823e601f3d908101601f191682016040526104ce9190810190610a1f565b9050336001600160a01b03167f447330510e69ee5049d721803ae5b8d7584b90ba51ada2a0b57b699d86b83bfd826040516105099190610904565b60405180910390a25050565b7f00000000000000000000000000000000000000000000000000000000000000006001600160a01b0316331461055d5760405162461bcd60e51b815260040161026c90610937565b600054604051638a44810d60e01b815260ff831660048201526001600160a01b0390911690638a44810d906024015b600060405180830381600087803b1580156105a657600080fd5b505af11580156105ba573d6000803e3d6000fd5b505050505b50565b60008054604080516330a75caf60e21b815290516060936001600160a01b039093169263c29d72bc92600480820193918290030181865afa15801561060b573d6000803e3d6000fd5b505050506040513d6000823e601f3d908101601f191682016040526103659190810190610ab3565b7f00000000000000000000000000000000000000000000000000000000000000006001600160a01b0316331461067b5760405162461bcd60e51b815260040161026c90610937565b60005460405163677aadcd60e11b8152600481018390526001600160a01b039091169063cef55b9a9060240161058c565b6000546060906001600160a01b03166106fe5760405162461bcd60e51b8152602060048201526014602482015273141b19585cd9481d5c19dc98591948199a5c9cdd60621b604482015260640161026c565b600080546040805163de29278960e01b815290516001600160a01b039092169263de292789926004808401938290030181865afa158015610743573d6000803e3d6000fd5b505050506040513d6000823e601f3d908101601f191682016040526103659190810190610a1f565b60008060009054906101000a90046001600160a01b03166001600160a01b031663e65d6b496040518163ffffffff1660e01b8152600401602060405180830381865afa1580156107bf573d6000803e3d6000fd5b505050506040513d601f19601f820116820180604052508101906103659190610b9d565b6001600160a01b03811681146105bf57600080fd5b60006020828403121561080a57600080fd5b8135610815816107e3565b9392505050565b60006020828403121561082e57600080fd5b81356004811061081557600080fd5b60ff811681146105bf57600080fd5b60006020828403121561085e57600080fd5b81356108158161083d565b602080825282518282018190526000919060409081850190868401855b828110156108ba57815180516001600160a01b0316855286015163ffffffff16868501529284019290850190600101610886565b5091979650505050505050565b6000602082840312156108d957600080fd5b5035919050565b60005b838110156108fb5781810151838201526020016108e3565b50506000910152565b60208152600082518060208401526109238160408501602087016108e0565b601f01601f19169190910160400192915050565b6020808252601a908201527f596f7520646f206e6f742068617665207065726d697373696f6e000000000000604082015260600190565b60006020828403121561098057600080fd5b5051919050565b60208101600483106109a957634e487b7160e01b600052602160045260246000fd5b91905290565b634e487b7160e01b600052604160045260246000fd5b6040805190810167ffffffffffffffff811182821017156109e8576109e86109af565b60405290565b604051601f8201601f1916810167ffffffffffffffff81118282101715610a1757610a176109af565b604052919050565b600060208284031215610a3157600080fd5b815167ffffffffffffffff80821115610a4957600080fd5b818401915084601f830112610a5d57600080fd5b815181811115610a6f57610a6f6109af565b610a82601f8201601f19166020016109ee565b9150808252856020828501011115610a9957600080fd5b610aaa8160208401602086016108e0565b50949350505050565b60006020808385031215610ac657600080fd5b825167ffffffffffffffff80821115610ade57600080fd5b818501915085601f830112610af257600080fd5b815181811115610b0457610b046109af565b610b12848260051b016109ee565b818152848101925060069190911b830184019087821115610b3257600080fd5b928401925b81841015610b925760408489031215610b505760008081fd5b610b586109c5565b8451610b63816107e3565b81528486015163ffffffff81168114610b7c5760008081fd5b8187015283526040939093019291840191610b37565b979650505050505050565b600060208284031215610baf57600080fd5b81516108158161083d56fea2646970667358221220e986e5ff72d3bd2dc7d2f8a7d4ae6adfeef984d9bc145a6acca122fc0890d65264736f6c63430008130033",
  "immutableReferences": {
    "60": [
      {
        "length": 32,
        "start": 375
      },
      {
        "length": 32,
        "start": 550
      },
      {
        "length": 32,
        "start": 878
      },
      {
        "length": 32,
        "start": 1303
      },
      {
        "length": 32,
        "start": 1589
      }
    ]
  },
  "source": "// SPDX-License-Identifier: MIT\r\n\r\npragma solidity ^0.8.19 .0;\r\n\r\nimport {IJoKenPo} from \"./IJoKenPo.sol\";\r\nimport {JKPLibrary} from \"./JKPLibrary.sol\";\r\n\r\ncontract JKPAdapter {\r\n    IJoKenPo private joKenPo;\r\n    address public immutable owner;\r\n\r\n    event Played(address indexed player, string result);\r\n\r\n    constructor() {\r\n        owner = payable(msg.sender);\r\n    }\r\n\r\n    function getAddress() external view returns (address) {\r\n        return address(joKenPo);\r\n    }\r\n\r\n    function getResult() external view upgraded returns (string memory) {\r\n        return joKenPo.getResult();\r\n    }\r\n\r\n    function getBid() external view returns (uint256) {\r\n        return joKenPo.getBid();\r\n    }\r\n\r\n    function getCommission() external view returns (uint8) {\r\n        return joKenPo.getCommission();\r\n    }\r\n\r\n    function setBid(uint256 newBid) external restricted {\r\n        return joKenPo.setBid(newBid);\r\n    }\r\n\r\n    function setCommission(uint8 newCommission) external restricted {\r\n        return joKenPo.setCommission(newCommission);\r\n    }\r\n\r\n    function getBalance() external view restricted returns (uint) {\r\n        return joKenPo.getBalance();\r\n    }\r\n\r\n    function play(JKPLibrary.Options newChoice) external payable upgraded {\r\n        string memory result = joKenPo.play{value: msg.value}(newChoice);\r\n        emit Played(msg.sender, result);\r\n    }\r\n\r\n    function getLeaderBoard()\r\n        external\r\n        view\r\n        returns (JKPLibrary.Winner[] memory)\r\n    {\r\n        return joKenPo.getLeaderBoard();\r\n    }\r\n\r\n    function upgrade(address newImplementation) external restricted {\r\n        require(newImplementation != address(0), \"Empty address not permitted\");\r\n        joKenPo = IJoKenPo(newImplementation);\r\n    }\r\n\r\n    modifier restricted() {\r\n        require(owner == msg.sender, \"You do not have permission\");\r\n        _;\r\n    }\r\n\r\n    modifier upgraded() {\r\n        require(address(joKenPo) != address(0), \"Please upgrade first\");\r\n        _;\r\n    }\r\n}\r\n",
  "sourcePath": "D:\\workspace\\WEB3-BLOCKCHAIN-Projects\\jokenpo\\on-chain\\contracts\\JKPAdapter.sol",
  "compiler": {
    "name": "solc",
    "version": "0.8.19+commit.7dd6d404.Emscripten.clang"
  },
  "schemaVersion": "3.4.14",
  "updatedAt": "2023-05-30T01:04:24.625Z",
  "networkType": "ethereum",
  "devdoc": {
    "kind": "dev",
    "methods": {},
    "version": 1
  },
  "userdoc": {
    "kind": "user",
    "methods": {},
    "version": 1
  }
}