{
  "contractName": "JKPAdapter",
  "abi": [
    {
      "inputs": [],
      "stateMutability": "nonpayable",
      "type": "constructor"
    },
    {
      "inputs": [],
      "name": "owner",
      "outputs": [
        {
          "internalType": "address",
          "name": "",
          "type": "address"
        }
      ],
      "stateMutability": "view",
      "type": "function",
      "constant": true
    },
    {
      "inputs": [],
      "name": "getAddress",
      "outputs": [
        {
          "internalType": "address",
          "name": "",
          "type": "address"
        }
      ],
      "stateMutability": "view",
      "type": "function",
      "constant": true
    },
    {
      "inputs": [],
      "name": "getResult",
      "outputs": [
        {
          "internalType": "string",
          "name": "",
          "type": "string"
        }
      ],
      "stateMutability": "view",
      "type": "function",
      "constant": true
    },
    {
      "inputs": [],
      "name": "getBid",
      "outputs": [
        {
          "internalType": "uint256",
          "name": "",
          "type": "uint256"
        }
      ],
      "stateMutability": "view",
      "type": "function",
      "constant": true
    },
    {
      "inputs": [],
      "name": "getCommission",
      "outputs": [
        {
          "internalType": "uint8",
          "name": "",
          "type": "uint8"
        }
      ],
      "stateMutability": "view",
      "type": "function",
      "constant": true
    },
    {
      "inputs": [
        {
          "internalType": "uint256",
          "name": "newBid",
          "type": "uint256"
        }
      ],
      "name": "setBid",
      "outputs": [],
      "stateMutability": "nonpayable",
      "type": "function"
    },
    {
      "inputs": [
        {
          "internalType": "uint8",
          "name": "newCommission",
          "type": "uint8"
        }
      ],
      "name": "setCommission",
      "outputs": [],
      "stateMutability": "nonpayable",
      "type": "function"
    },
    {
      "inputs": [],
      "name": "getBalance",
      "outputs": [
        {
          "internalType": "uint256",
          "name": "",
          "type": "uint256"
        }
      ],
      "stateMutability": "view",
      "type": "function",
      "constant": true
    },
    {
      "inputs": [
        {
          "internalType": "enum JKPLibrary.Options",
          "name": "newChoice",
          "type": "uint8"
        }
      ],
      "name": "play",
      "outputs": [],
      "stateMutability": "payable",
      "type": "function",
      "payable": true
    },
    {
      "inputs": [],
      "name": "getLeaderBoard",
      "outputs": [
        {
          "components": [
            {
              "internalType": "address",
              "name": "wallet",
              "type": "address"
            },
            {
              "internalType": "uint32",
              "name": "wins",
              "type": "uint32"
            }
          ],
          "internalType": "struct JKPLibrary.Winner[]",
          "name": "",
          "type": "tuple[]"
        }
      ],
      "stateMutability": "view",
      "type": "function",
      "constant": true
    },
    {
      "inputs": [
        {
          "internalType": "address",
          "name": "newImplementation",
          "type": "address"
        }
      ],
      "name": "upgrade",
      "outputs": [],
      "stateMutability": "nonpayable",
      "type": "function"
    }
  ],
  "bytecode": "0x60a060405234801561001057600080fd5b5033608052608051610b9661004c60003960008181610177015281816102260152818161036e015281816104bd01526105db0152610b966000f3fe60806040526004361061009c5760003560e01c80638a44810d116100645780638a44810d146101455780638da5cb5b14610165578063c29d72bc14610199578063cef55b9a146101bb578063de292789146101db578063e65d6b49146101fd57600080fd5b80630900f010146100a1578063099a019d146100c357806312065fe0146100eb57806338cc48311461010057806353a04b0514610132575b600080fd5b3480156100ad57600080fd5b506100c16100bc36600461079e565b610224565b005b3480156100cf57600080fd5b506100d86102ed565b6040519081526020015b60405180910390f35b3480156100f757600080fd5b506100d861036a565b34801561010c57600080fd5b506000546001600160a01b03165b6040516001600160a01b0390911681526020016100e2565b6100c16101403660046107c2565b610405565b34801561015157600080fd5b506100c16101603660046107f2565b6104bb565b34801561017157600080fd5b5061011a7f000000000000000000000000000000000000000000000000000000000000000081565b3480156101a557600080fd5b506101ae610568565b6040516100e2919061080f565b3480156101c757600080fd5b506100c16101d636600461086d565b6105d9565b3480156101e757600080fd5b506101f0610652565b6040516100e291906108aa565b34801561020957600080fd5b50610212610711565b60405160ff90911681526020016100e2565b7f00000000000000000000000000000000000000000000000000000000000000006001600160a01b031633146102755760405162461bcd60e51b815260040161026c906108dd565b60405180910390fd5b6001600160a01b0381166102cb5760405162461bcd60e51b815260206004820152601b60248201527f456d7074792061646472657373206e6f74207065726d69747465640000000000604482015260640161026c565b600080546001600160a01b0319166001600160a01b0392909216919091179055565b60008060009054906101000a90046001600160a01b03166001600160a01b031663099a019d6040518163ffffffff1660e01b8152600401602060405180830381865afa158015610341573d6000803e3d6000fd5b505050506040513d601f19601f820116820180604052508101906103659190610914565b905090565b60007f00000000000000000000000000000000000000000000000000000000000000006001600160a01b031633146103b45760405162461bcd60e51b815260040161026c906108dd565b60008054906101000a90046001600160a01b03166001600160a01b03166312065fe06040518163ffffffff1660e01b8152600401602060405180830381865afa158015610341573d6000803e3d6000fd5b6000546001600160a01b03166104545760405162461bcd60e51b8152602060048201526014602482015273141b19585cd9481d5c19dc98591948199a5c9cdd60621b604482015260640161026c565b6000546040516353a04b0560e01b81526001600160a01b03909116906353a04b0590349061048690859060040161092d565b6000604051808303818588803b15801561049f57600080fd5b505af11580156104b3573d6000803e3d6000fd5b505050505050565b7f00000000000000000000000000000000000000000000000000000000000000006001600160a01b031633146105035760405162461bcd60e51b815260040161026c906108dd565b600054604051638a44810d60e01b815260ff831660048201526001600160a01b0390911690638a44810d906024015b600060405180830381600087803b15801561054c57600080fd5b505af1158015610560573d6000803e3d6000fd5b505050505b50565b60008054604080516330a75caf60e21b815290516060936001600160a01b039093169263c29d72bc92600480820193918290030181865afa1580156105b1573d6000803e3d6000fd5b505050506040513d6000823e601f3d908101601f1916820160405261036591908101906109c5565b7f00000000000000000000000000000000000000000000000000000000000000006001600160a01b031633146106215760405162461bcd60e51b815260040161026c906108dd565b60005460405163677aadcd60e11b8152600481018390526001600160a01b039091169063cef55b9a90602401610532565b6000546060906001600160a01b03166106a45760405162461bcd60e51b8152602060048201526014602482015273141b19585cd9481d5c19dc98591948199a5c9cdd60621b604482015260640161026c565b600080546040805163de29278960e01b815290516001600160a01b039092169263de292789926004808401938290030181865afa1580156106e9573d6000803e3d6000fd5b505050506040513d6000823e601f3d908101601f191682016040526103659190810190610aaf565b60008060009054906101000a90046001600160a01b03166001600160a01b031663e65d6b496040518163ffffffff1660e01b8152600401602060405180830381865afa158015610765573d6000803e3d6000fd5b505050506040513d601f19601f820116820180604052508101906103659190610b43565b6001600160a01b038116811461056557600080fd5b6000602082840312156107b057600080fd5b81356107bb81610789565b9392505050565b6000602082840312156107d457600080fd5b8135600481106107bb57600080fd5b60ff8116811461056557600080fd5b60006020828403121561080457600080fd5b81356107bb816107e3565b602080825282518282018190526000919060409081850190868401855b8281101561086057815180516001600160a01b0316855286015163ffffffff1686850152928401929085019060010161082c565b5091979650505050505050565b60006020828403121561087f57600080fd5b5035919050565b60005b838110156108a1578181015183820152602001610889565b50506000910152565b60208152600082518060208401526108c9816040850160208701610886565b601f01601f19169190910160400192915050565b6020808252601a908201527f596f7520646f206e6f742068617665207065726d697373696f6e000000000000604082015260600190565b60006020828403121561092657600080fd5b5051919050565b602081016004831061094f57634e487b7160e01b600052602160045260246000fd5b91905290565b634e487b7160e01b600052604160045260246000fd5b6040805190810167ffffffffffffffff8111828210171561098e5761098e610955565b60405290565b604051601f8201601f1916810167ffffffffffffffff811182821017156109bd576109bd610955565b604052919050565b600060208083850312156109d857600080fd5b825167ffffffffffffffff808211156109f057600080fd5b818501915085601f830112610a0457600080fd5b815181811115610a1657610a16610955565b610a24848260051b01610994565b818152848101925060069190911b830184019087821115610a4457600080fd5b928401925b81841015610aa45760408489031215610a625760008081fd5b610a6a61096b565b8451610a7581610789565b81528486015163ffffffff81168114610a8e5760008081fd5b8187015283526040939093019291840191610a49565b979650505050505050565b600060208284031215610ac157600080fd5b815167ffffffffffffffff80821115610ad957600080fd5b818401915084601f830112610aed57600080fd5b815181811115610aff57610aff610955565b610b12601f8201601f1916602001610994565b9150808252856020828501011115610b2957600080fd5b610b3a816020840160208601610886565b50949350505050565b600060208284031215610b5557600080fd5b81516107bb816107e356fea2646970667358221220d5708599dd977e6118ce5b60261ee9edd37e79d337d414f30917869324a0280264736f6c63430008130033",
  "immutableReferences": {
    "58": [
      {
        "length": 32,
        "start": 375
      },
      {
        "length": 32,
        "start": 550
      },
      {
        "length": 32,
        "start": 878
      },
      {
        "length": 32,
        "start": 1213
      },
      {
        "length": 32,
        "start": 1499
      }
    ]
  },
  "source": "// SPDX-License-Identifier: MIT\r\n\r\npragma solidity ^0.8.19 .0;\r\n\r\nimport {IJoKenPo} from \"./IJoKenPo.sol\";\r\nimport {JKPLibrary} from \"./JKPLibrary.sol\";\r\n\r\ncontract JKPAdapter {\r\n    IJoKenPo private joKenPo;\r\n    address public immutable owner;\r\n\r\n    constructor() {\r\n        owner = payable(msg.sender);\r\n    }\r\n\r\n    function getAddress() external view returns (address) {\r\n        return address(joKenPo);\r\n    }\r\n\r\n    function getResult() external view upgraded returns (string memory) {\r\n        return joKenPo.getResult();\r\n    }\r\n\r\n    function getBid() external view returns (uint256) {\r\n        return joKenPo.getBid();\r\n    }\r\n\r\n    function getCommission() external view returns (uint8) {\r\n        return joKenPo.getCommission();\r\n    }\r\n\r\n    function setBid(uint256 newBid) external restricted {\r\n        return joKenPo.setBid(newBid);\r\n    }\r\n\r\n    function setCommission(uint8 newCommission) external restricted {\r\n        return joKenPo.setCommission(newCommission);\r\n    }\r\n\r\n    function getBalance() external view restricted returns (uint) {\r\n        return joKenPo.getBalance();\r\n    }\r\n\r\n    function play(JKPLibrary.Options newChoice) external payable upgraded {\r\n        joKenPo.play{value: msg.value}(newChoice);\r\n    }\r\n\r\n    function getLeaderBoard()\r\n        external\r\n        view\r\n        returns (JKPLibrary.Winner[] memory)\r\n    {\r\n        return joKenPo.getLeaderBoard();\r\n    }\r\n\r\n    function upgrade(address newImplementation) external restricted {\r\n        require(newImplementation != address(0), \"Empty address not permitted\");\r\n        joKenPo = IJoKenPo(newImplementation);\r\n    }\r\n\r\n    modifier restricted() {\r\n        require(owner == msg.sender, \"You do not have permission\");\r\n        _;\r\n    }\r\n\r\n    modifier upgraded() {\r\n        require(address(joKenPo) != address(0), \"Please upgrade first\");\r\n        _;\r\n    }\r\n}\r\n",
  "sourcePath": "D:\\workspace\\WEB3-BLOCKCHAIN-Projects\\jokenpo\\on-chain\\contracts\\JKPAdapter.sol",
  "compiler": {
    "name": "solc",
    "version": "0.8.19+commit.7dd6d404.Emscripten.clang"
  },
  "schemaVersion": "3.4.14",
  "updatedAt": "2023-05-24T01:54:46.953Z",
  "networkType": "ethereum",
  "devdoc": {
    "kind": "dev",
    "methods": {},
    "version": 1
  },
  "userdoc": {
    "kind": "user",
    "methods": {},
    "version": 1
  }
}