{
  "contractName": "JoKenPo",
  "abi": [
    {
      "inputs": [],
      "stateMutability": "nonpayable",
      "type": "constructor"
    },
    {
      "inputs": [
        {
          "internalType": "uint256",
          "name": "",
          "type": "uint256"
        }
      ],
      "name": "winners",
      "outputs": [
        {
          "internalType": "address",
          "name": "wallet",
          "type": "address"
        },
        {
          "internalType": "uint32",
          "name": "wins",
          "type": "uint32"
        }
      ],
      "stateMutability": "view",
      "type": "function",
      "constant": true
    },
    {
      "inputs": [],
      "name": "getResult",
      "outputs": [
        {
          "internalType": "string",
          "name": "",
          "type": "string"
        }
      ],
      "stateMutability": "view",
      "type": "function",
      "constant": true
    },
    {
      "inputs": [],
      "name": "getBid",
      "outputs": [
        {
          "internalType": "uint256",
          "name": "",
          "type": "uint256"
        }
      ],
      "stateMutability": "view",
      "type": "function",
      "constant": true
    },
    {
      "inputs": [],
      "name": "getCommission",
      "outputs": [
        {
          "internalType": "uint8",
          "name": "",
          "type": "uint8"
        }
      ],
      "stateMutability": "view",
      "type": "function",
      "constant": true
    },
    {
      "inputs": [
        {
          "internalType": "uint256",
          "name": "newBid",
          "type": "uint256"
        }
      ],
      "name": "setBid",
      "outputs": [],
      "stateMutability": "nonpayable",
      "type": "function"
    },
    {
      "inputs": [
        {
          "internalType": "uint8",
          "name": "newCommission",
          "type": "uint8"
        }
      ],
      "name": "setCommission",
      "outputs": [],
      "stateMutability": "nonpayable",
      "type": "function"
    },
    {
      "inputs": [],
      "name": "getBalance",
      "outputs": [
        {
          "internalType": "uint256",
          "name": "",
          "type": "uint256"
        }
      ],
      "stateMutability": "view",
      "type": "function",
      "constant": true
    },
    {
      "inputs": [
        {
          "internalType": "enum JKPLibrary.Options",
          "name": "newChoice",
          "type": "uint8"
        }
      ],
      "name": "play",
      "outputs": [],
      "stateMutability": "payable",
      "type": "function",
      "payable": true
    },
    {
      "inputs": [],
      "name": "getLeaderBoard",
      "outputs": [
        {
          "components": [
            {
              "internalType": "address",
              "name": "wallet",
              "type": "address"
            },
            {
              "internalType": "uint32",
              "name": "wins",
              "type": "uint32"
            }
          ],
          "internalType": "struct JKPLibrary.Winner[]",
          "name": "",
          "type": "tuple[]"
        }
      ],
      "stateMutability": "view",
      "type": "function",
      "constant": true
    }
  ],
  "bytecode": "0x6000805460ff1916815560c060405260a0908152600190620000229082620000f8565b50662386f26fc100006002556003805460ff1916600a1790553480156200004857600080fd5b5033608052620001c4565b634e487b7160e01b600052604160045260246000fd5b600181811c908216806200007e57607f821691505b6020821081036200009f57634e487b7160e01b600052602260045260246000fd5b50919050565b601f821115620000f357600081815260208120601f850160051c81016020861015620000ce5750805b601f850160051c820191505b81811015620000ef57828155600101620000da565b5050505b505050565b81516001600160401b0381111562000114576200011462000053565b6200012c8162000125845462000069565b84620000a5565b602080601f8311600181146200016457600084156200014b5750858301515b600019600386901b1c1916600185901b178555620000ef565b600085815260208120601f198616915b82811015620001955788860151825594840194600190910190840162000174565b5085821015620001b45787850151600019600388901b60f8161c191681555b5050505050600190811b01905550565b608051611282620001fc600039600081816101c7015281816102250152818161070601528181610abd0152610c6501526112826000f3fe6080604052600436106100865760003560e01c8063a2fb117511610059578063a2fb1175146100f9578063c29d72bc1461013d578063cef55b9a1461015f578063de2927891461017f578063e65d6b49146101a157600080fd5b8063099a019d1461008b57806312065fe0146100af57806353a04b05146100c45780638a44810d146100d9575b600080fd5b34801561009757600080fd5b506002545b6040519081526020015b60405180910390f35b3480156100bb57600080fd5b5061009c6101c3565b6100d76100d2366004610e08565b61021b565b005b3480156100e557600080fd5b506100d76100f4366004610e30565b610704565b34801561010557600080fd5b50610119610114366004610e53565b6107fb565b604080516001600160a01b03909316835263ffffffff9091166020830152016100a6565b34801561014957600080fd5b50610152610833565b6040516100a69190610e6c565b34801561016b57600080fd5b506100d761017a366004610e53565b610abb565b34801561018b57600080fd5b50610194610b59565b6040516100a69190610eca565b3480156101ad57600080fd5b5060035460405160ff90911681526020016100a6565b60007f00000000000000000000000000000000000000000000000000000000000000006001600160a01b031632146102165760405162461bcd60e51b815260040161020d90610f18565b60405180910390fd5b504790565b6001600160a01b037f000000000000000000000000000000000000000000000000000000000000000016320361028b5760405162461bcd60e51b8152602060048201526015602482015274546865206f776e65722063616e6e6f7420706c617960581b604482015260640161020d565b600081600381111561029f5761029f610f4f565b036102dd5760405162461bcd60e51b815260206004820152600e60248201526d496e76616c69642063686f69636560901b604482015260640161020d565b600054326101009091046001600160a01b03160361033d5760405162461bcd60e51b815260206004820152601760248201527f576169742074686520616e6f7468657220706c61796572000000000000000000604482015260640161020d565b60025434101561037d5760405162461bcd60e51b815260206004820152600b60248201526a125b9d985b1a5908189a5960aa1b604482015260640161020d565b6000805460ff16600381111561039557610395610f4f565b0361040b5760008054610100600160a81b03198116326101000290811783558392916001600160a81b03191660ff199091161760018360038111156103dc576103dc610f4f565b02179055506040518060600160405280603181526020016111fa603191396001906104079082610ffe565b5050565b600160005460ff16600381111561042457610424610f4f565b1480156104425750600381600381111561044057610440610f4f565b145b1561047c576104796040518060600160405280602381526020016111b46023913960005461010090046001600160a01b0316610beb565b50565b600260005460ff16600381111561049557610495610f4f565b1480156104b3575060018160038111156104b1576104b1610f4f565b145b156105075760408051808201909152601f81527f506170657220777261707320726f636b2e20506c61796572203120776f6e2e006020820152600054610479919061010090046001600160a01b0316610beb565b600360005460ff16600381111561052057610520610f4f565b14801561053e5750600281600381111561053c5761053c610f4f565b145b156105755761047960405180606001604052806022815260200161122b6022913960005461010090046001600160a01b0316610beb565b600360005460ff16600381111561058e5761058e610f4f565b1480156105ac575060018160038111156105aa576105aa610f4f565b145b156105d3576104796040518060600160405280602381526020016111d76023913932610beb565b600160005460ff1660038111156105ec576105ec610f4f565b14801561060a5750600281600381111561060857610608610f4f565b145b1561064e576104796040518060400160405280601f81526020017f506170657220777261707320726f636b2e20506c61796572203220776f6e2e0081525032610beb565b600260005460ff16600381111561066757610667610f4f565b1480156106855750600381600381111561068357610683610f4f565b145b156106ac576104796040518060600160405280602281526020016111926022913932610beb565b6040518060400160405280602081526020017f447261772067616d652e20546865207072697a652077617320646f75626c6564815250600190816106f09190610ffe565b5050600080546001600160a81b0319169055565b7f00000000000000000000000000000000000000000000000000000000000000006001600160a01b0316321461074c5760405162461bcd60e51b815260040161020d90610f18565b60005461010090046001600160a01b03161561079d5760405162461bcd60e51b815260206004820152601060248201526f47616d6520696e2070726f677265737360801b604482015260640161020d565b60648160ff1611156107e55760405162461bcd60e51b815260206004820152601160248201527004265747765656e203020616e642031303607c1b604482015260640161020d565b6003805460ff191660ff92909216919091179055565b6004818154811061080b57600080fd5b6000918252602090912001546001600160a01b0381169150600160a01b900463ffffffff1682565b600454606090600211156108b8576004805480602002602001604051908101604052809291908181526020016000905b828210156108af57600084815260209081902060408051808201909152908401546001600160a01b0381168252600160a01b900463ffffffff1681830152825260019092019101610863565b50505050905090565b60045460009067ffffffffffffffff8111156108d6576108d6610f65565b60405190808252806020026020018201604052801561091b57816020015b60408051808201909152600080825260208201528152602001906001900390816108f45790505b50905060005b6004548110156109a8576004818154811061093e5761093e6110be565b6000918252602091829020604080518082019091529101546001600160a01b0381168252600160a01b900463ffffffff1691810191909152825183908390811061098a5761098a6110be565b602002602001018190525080806109a0906110ea565b915050610921565b5060005b600182516109ba9190611103565b811015610ab55760015b8251811015610aa2578281815181106109df576109df6110be565b60200260200101516020015163ffffffff16838381518110610a0357610a036110be565b60200260200101516020015163ffffffff161015610a90576000838381518110610a2f57610a2f6110be565b60200260200101519050838281518110610a4b57610a4b6110be565b6020026020010151848481518110610a6557610a656110be565b602002602001018190525080848381518110610a8357610a836110be565b6020026020010181905250505b80610a9a816110ea565b9150506109c4565b5080610aad816110ea565b9150506109ac565b50919050565b7f00000000000000000000000000000000000000000000000000000000000000006001600160a01b03163214610b035760405162461bcd60e51b815260040161020d90610f18565b60005461010090046001600160a01b031615610b545760405162461bcd60e51b815260206004820152601060248201526f47616d6520696e2070726f677265737360801b604482015260640161020d565b600255565b606060018054610b6890610f7b565b80601f0160208091040260200160405190810160405280929190818152602001828054610b9490610f7b565b8015610be15780601f10610bb657610100808354040283529160200191610be1565b820191906000526020600020905b815481529060010190602001808311610bc457829003601f168201915b5050505050905090565b60035430906001600160a01b038316906108fc90610c0d9060ff16606461111c565b60ff16610c2560646001600160a01b03861631611135565b610c2f9190611157565b6040518115909202916000818181858888f19350505050158015610c57573d6000803e3d6000fd5b506040516001600160a01b037f00000000000000000000000000000000000000000000000000000000000000008116919083163180156108fc02916000818181858888f19350505050158015610cb1573d6000803e3d6000fd5b50610cbb82610cdd565b6001610cc78482610ffe565b5050600080546001600160a81b03191690555050565b60005b600454811015610d8f57816001600160a01b031660048281548110610d0757610d076110be565b6000918252602090912001546001600160a01b031603610d7d5760048181548110610d3457610d346110be565b60009182526020909120018054600160a01b900463ffffffff16906014610d5a8361116e565b91906101000a81548163ffffffff021916908363ffffffff160217905550505050565b80610d87816110ea565b915050610ce0565b50604080518082019091526001600160a01b03918216815260016020820181815260048054928301815560005291517f8a35acfbc15ff81a39ae7d344fd709f28e8600b4aa8c65c6b64bfe7fe36bd19b9091018054925163ffffffff16600160a01b026001600160c01b03199093169190931617179055565b600060208284031215610e1a57600080fd5b813560048110610e2957600080fd5b9392505050565b600060208284031215610e4257600080fd5b813560ff81168114610e2957600080fd5b600060208284031215610e6557600080fd5b5035919050565b602080825282518282018190526000919060409081850190868401855b82811015610ebd57815180516001600160a01b0316855286015163ffffffff16868501529284019290850190600101610e89565b5091979650505050505050565b600060208083528351808285015260005b81811015610ef757858101830151858201604001528201610edb565b506000604082860101526040601f19601f8301168501019250505092915050565b6020808252601a908201527f596f7520646f206e6f742068617665207065726d697373696f6e000000000000604082015260600190565b634e487b7160e01b600052602160045260246000fd5b634e487b7160e01b600052604160045260246000fd5b600181811c90821680610f8f57607f821691505b602082108103610ab557634e487b7160e01b600052602260045260246000fd5b601f821115610ff957600081815260208120601f850160051c81016020861015610fd65750805b601f850160051c820191505b81811015610ff557828155600101610fe2565b5050505b505050565b815167ffffffffffffffff81111561101857611018610f65565b61102c816110268454610f7b565b84610faf565b602080601f83116001811461106157600084156110495750858301515b600019600386901b1c1916600185901b178555610ff5565b600085815260208120601f198616915b8281101561109057888601518255948401946001909101908401611071565b50858210156110ae5787850151600019600388901b60f8161c191681555b5050505050600190811b01905550565b634e487b7160e01b600052603260045260246000fd5b634e487b7160e01b600052601160045260246000fd5b6000600182016110fc576110fc6110d4565b5060010190565b81810381811115611116576111166110d4565b92915050565b60ff8281168282160390811115611116576111166110d4565b60008261115257634e487b7160e01b600052601260045260246000fd5b500490565b8082028115828204841417611116576111166110d4565b600063ffffffff808316818103611187576111876110d4565b600101939250505056fe53636973736f727320637574732070617065722e20506c61796572203220776f6e2e526f636b20627265616b732073636973736f72732e20506c61796572203120776f6e2e526f636b20627265616b732073636973736f72732e20506c61796572203220776f6e2e506c6179657220312063686f6f7365206869732f686572206f7074696f6e2e2057616974696e6720706c6179657220322e53636973736f727320637574732070617065722e20506c61796572203120776f6e2ea2646970667358221220c3446f9c13e44a55306ad0e7a640be3bc4abfcf898b9a9b2578dad0f6f328ec864736f6c63430008130033",
  "immutableReferences": {
    "275": [
      {
        "length": 32,
        "start": 455
      },
      {
        "length": 32,
        "start": 549
      },
      {
        "length": 32,
        "start": 1798
      },
      {
        "length": 32,
        "start": 2749
      },
      {
        "length": 32,
        "start": 3173
      }
    ]
  },
  "source": "/**\n *Submitted for verification at Etherscan.io on 2022-11-04\n */\n\n// SPDX-License-Identifier: MIT\n\npragma solidity ^0.8.19 .0;\n\nimport {IJoKenPo} from \"./IJoKenPo.sol\";\nimport {JKPLibrary} from \"./JKPLibrary.sol\";\n\ncontract JoKenPo is IJoKenPo {\n    JKPLibrary.Options private choice1 = JKPLibrary.Options.NONE;\n    address private player1;\n    string private result = \"\";\n    uint256 private bid = 0.01 ether;\n    uint8 private commission = 10; // percent\n\n    address payable private immutable owner;\n\n    JKPLibrary.Winner[] public winners;\n\n    constructor() {\n        owner = payable(msg.sender);\n    }\n\n    function getResult() external view returns (string memory) {\n        return result;\n    }\n\n    function getBid() external view returns (uint256) {\n        return bid;\n    }\n\n    function getCommission() external view returns (uint8) {\n        return commission;\n    }\n\n    function setBid(uint256 newBid) external restricted {\n        require(player1 == address(0), \"Game in progress\");\n        bid = newBid;\n    }\n\n    function setCommission(uint8 newCommission) external restricted {\n        require(player1 == address(0), \"Game in progress\");\n        require(\n            newCommission >= 0 && newCommission <= 100,\n            \"Between 0 and 100\"\n        );\n        commission = newCommission;\n    }\n\n    function updateWinner(address winner) private {\n        for (uint i = 0; i < winners.length; i++) {\n            if (winners[i].wallet == winner) {\n                winners[i].wins++;\n                return;\n            }\n        }\n        winners.push(JKPLibrary.Winner(winner, 1));\n    }\n\n    function finishGame(string memory newResult, address winner) private {\n        address contractAddress = address(this);\n        payable(winner).transfer(\n            (contractAddress.balance / 100) * (100 - commission)\n        );\n        owner.transfer(contractAddress.balance);\n\n        updateWinner(winner);\n\n        result = newResult;\n        player1 = address(0);\n        choice1 = JKPLibrary.Options.NONE;\n    }\n\n    function getBalance() external view restricted returns (uint) {\n        return address(this).balance;\n    }\n\n    function play(JKPLibrary.Options newChoice) external payable {\n        require(tx.origin != owner, \"The owner cannot play\");\n        require(newChoice != JKPLibrary.Options.NONE, \"Invalid choice\");\n        require(player1 != tx.origin, \"Wait the another player\");\n        require(msg.value >= bid, \"Invalid bid\");\n\n        if (choice1 == JKPLibrary.Options.NONE) {\n            player1 = tx.origin;\n            choice1 = newChoice;\n            result = \"Player 1 choose his/her option. Waiting player 2.\";\n        } else if (\n            choice1 == JKPLibrary.Options.ROCK &&\n            newChoice == JKPLibrary.Options.SCISSORS\n        ) finishGame(\"Rock breaks scissors. Player 1 won.\", player1);\n        else if (\n            choice1 == JKPLibrary.Options.PAPER &&\n            newChoice == JKPLibrary.Options.ROCK\n        ) finishGame(\"Paper wraps rock. Player 1 won.\", player1);\n        else if (\n            choice1 == JKPLibrary.Options.SCISSORS &&\n            newChoice == JKPLibrary.Options.PAPER\n        ) finishGame(\"Scissors cuts paper. Player 1 won.\", player1);\n        else if (\n            choice1 == JKPLibrary.Options.SCISSORS &&\n            newChoice == JKPLibrary.Options.ROCK\n        ) finishGame(\"Rock breaks scissors. Player 2 won.\", tx.origin);\n        else if (\n            choice1 == JKPLibrary.Options.ROCK &&\n            newChoice == JKPLibrary.Options.PAPER\n        ) finishGame(\"Paper wraps rock. Player 2 won.\", tx.origin);\n        else if (\n            choice1 == JKPLibrary.Options.PAPER &&\n            newChoice == JKPLibrary.Options.SCISSORS\n        ) finishGame(\"Scissors cuts paper. Player 2 won.\", tx.origin);\n        else {\n            result = \"Draw game. The prize was doubled\";\n            player1 = address(0);\n            choice1 = JKPLibrary.Options.NONE;\n        }\n    }\n\n    function getLeaderBoard()\n        external\n        view\n        returns (JKPLibrary.Winner[] memory)\n    {\n        if (winners.length < 2) return winners;\n\n        JKPLibrary.Winner[] memory arr = new JKPLibrary.Winner[](\n            winners.length\n        );\n        for (uint i = 0; i < winners.length; i++) {\n            arr[i] = winners[i];\n        }\n\n        for (uint i = 0; i < arr.length - 1; i++) {\n            for (uint j = 1; j < arr.length; j++) {\n                if (arr[i].wins < arr[j].wins) {\n                    JKPLibrary.Winner memory change = arr[i];\n                    arr[i] = arr[j];\n                    arr[j] = change;\n                }\n            }\n        }\n        return arr;\n    }\n\n    modifier restricted() {\n        require(owner == tx.origin, \"You do not have permission\");\n        _;\n    }\n}\n",
  "sourcePath": "D:\\workspace\\WEB3-BLOCKCHAIN-Projects\\jokenpo\\on-chain\\contracts\\JoKenPo.sol",
  "compiler": {
    "name": "solc",
    "version": "0.8.19+commit.7dd6d404.Emscripten.clang"
  },
  "schemaVersion": "3.4.14",
  "updatedAt": "2023-05-28T01:14:31.043Z",
  "networkType": "ethereum",
  "devdoc": {
    "kind": "dev",
    "methods": {},
    "version": 1
  },
  "userdoc": {
    "kind": "user",
    "methods": {},
    "version": 1
  }
}