{
  "contractName": "ProtoCoin",
  "abi": [
    {
      "inputs": [],
      "stateMutability": "nonpayable",
      "type": "constructor"
    },
    {
      "anonymous": false,
      "inputs": [
        {
          "indexed": true,
          "internalType": "address",
          "name": "owner",
          "type": "address"
        },
        {
          "indexed": true,
          "internalType": "address",
          "name": "spender",
          "type": "address"
        },
        {
          "indexed": false,
          "internalType": "uint256",
          "name": "value",
          "type": "uint256"
        }
      ],
      "name": "Approval",
      "type": "event"
    },
    {
      "anonymous": false,
      "inputs": [
        {
          "indexed": true,
          "internalType": "address",
          "name": "from",
          "type": "address"
        },
        {
          "indexed": true,
          "internalType": "address",
          "name": "to",
          "type": "address"
        },
        {
          "indexed": false,
          "internalType": "uint256",
          "name": "value",
          "type": "uint256"
        }
      ],
      "name": "Transfer",
      "type": "event"
    },
    {
      "inputs": [
        {
          "internalType": "address",
          "name": "owner",
          "type": "address"
        },
        {
          "internalType": "address",
          "name": "spender",
          "type": "address"
        }
      ],
      "name": "allowance",
      "outputs": [
        {
          "internalType": "uint256",
          "name": "",
          "type": "uint256"
        }
      ],
      "stateMutability": "view",
      "type": "function",
      "constant": true
    },
    {
      "inputs": [
        {
          "internalType": "address",
          "name": "spender",
          "type": "address"
        },
        {
          "internalType": "uint256",
          "name": "amount",
          "type": "uint256"
        }
      ],
      "name": "approve",
      "outputs": [
        {
          "internalType": "bool",
          "name": "",
          "type": "bool"
        }
      ],
      "stateMutability": "nonpayable",
      "type": "function"
    },
    {
      "inputs": [
        {
          "internalType": "address",
          "name": "account",
          "type": "address"
        }
      ],
      "name": "balanceOf",
      "outputs": [
        {
          "internalType": "uint256",
          "name": "",
          "type": "uint256"
        }
      ],
      "stateMutability": "view",
      "type": "function",
      "constant": true
    },
    {
      "inputs": [],
      "name": "decimals",
      "outputs": [
        {
          "internalType": "uint8",
          "name": "",
          "type": "uint8"
        }
      ],
      "stateMutability": "view",
      "type": "function",
      "constant": true
    },
    {
      "inputs": [
        {
          "internalType": "address",
          "name": "spender",
          "type": "address"
        },
        {
          "internalType": "uint256",
          "name": "subtractedValue",
          "type": "uint256"
        }
      ],
      "name": "decreaseAllowance",
      "outputs": [
        {
          "internalType": "bool",
          "name": "",
          "type": "bool"
        }
      ],
      "stateMutability": "nonpayable",
      "type": "function"
    },
    {
      "inputs": [
        {
          "internalType": "address",
          "name": "spender",
          "type": "address"
        },
        {
          "internalType": "uint256",
          "name": "addedValue",
          "type": "uint256"
        }
      ],
      "name": "increaseAllowance",
      "outputs": [
        {
          "internalType": "bool",
          "name": "",
          "type": "bool"
        }
      ],
      "stateMutability": "nonpayable",
      "type": "function"
    },
    {
      "inputs": [],
      "name": "name",
      "outputs": [
        {
          "internalType": "string",
          "name": "",
          "type": "string"
        }
      ],
      "stateMutability": "view",
      "type": "function",
      "constant": true
    },
    {
      "inputs": [],
      "name": "symbol",
      "outputs": [
        {
          "internalType": "string",
          "name": "",
          "type": "string"
        }
      ],
      "stateMutability": "view",
      "type": "function",
      "constant": true
    },
    {
      "inputs": [],
      "name": "totalSupply",
      "outputs": [
        {
          "internalType": "uint256",
          "name": "",
          "type": "uint256"
        }
      ],
      "stateMutability": "view",
      "type": "function",
      "constant": true
    },
    {
      "inputs": [
        {
          "internalType": "address",
          "name": "to",
          "type": "address"
        },
        {
          "internalType": "uint256",
          "name": "amount",
          "type": "uint256"
        }
      ],
      "name": "transfer",
      "outputs": [
        {
          "internalType": "bool",
          "name": "",
          "type": "bool"
        }
      ],
      "stateMutability": "nonpayable",
      "type": "function"
    },
    {
      "inputs": [
        {
          "internalType": "address",
          "name": "from",
          "type": "address"
        },
        {
          "internalType": "address",
          "name": "to",
          "type": "address"
        },
        {
          "internalType": "uint256",
          "name": "amount",
          "type": "uint256"
        }
      ],
      "name": "transferFrom",
      "outputs": [
        {
          "internalType": "bool",
          "name": "",
          "type": "bool"
        }
      ],
      "stateMutability": "nonpayable",
      "type": "function"
    },
    {
      "inputs": [
        {
          "internalType": "address",
          "name": "to",
          "type": "address"
        }
      ],
      "name": "mint",
      "outputs": [],
      "stateMutability": "nonpayable",
      "type": "function"
    },
    {
      "inputs": [
        {
          "internalType": "uint256",
          "name": "newAmount",
          "type": "uint256"
        }
      ],
      "name": "setMintAmount",
      "outputs": [],
      "stateMutability": "nonpayable",
      "type": "function"
    },
    {
      "inputs": [
        {
          "internalType": "uint64",
          "name": "delayInSeconds",
          "type": "uint64"
        }
      ],
      "name": "setMintDelay",
      "outputs": [],
      "stateMutability": "nonpayable",
      "type": "function"
    }
  ],
  "bytecode": "0x60806040526000600655600780546001600160401b031916620151801790553480156200002b57600080fd5b506040518060400160405280600d81526020016c2732bb90283937ba37a1b7b4b760991b815250604051806040016040528060038152602001624e504360e81b81525081600390816200007f919062000232565b5060046200008e828262000232565b5050600580546001600160a01b03191633908117909155620000bd91506a084595161401484a000000620000c3565b62000326565b6001600160a01b0382166200011e5760405162461bcd60e51b815260206004820152601f60248201527f45524332303a206d696e7420746f20746865207a65726f206164647265737300604482015260640160405180910390fd5b8060026000828254620001329190620002fe565b90915550506001600160a01b038216600081815260208181526040808320805486019055518481527fddf252ad1be2c89b69c2b068fc378daa952ba7f163c4a11628f55a4df523b3ef910160405180910390a35050565b505050565b634e487b7160e01b600052604160045260246000fd5b600181811c90821680620001b957607f821691505b602082108103620001da57634e487b7160e01b600052602260045260246000fd5b50919050565b601f8211156200018957600081815260208120601f850160051c81016020861015620002095750805b601f850160051c820191505b818110156200022a5782815560010162000215565b505050505050565b81516001600160401b038111156200024e576200024e6200018e565b62000266816200025f8454620001a4565b84620001e0565b602080601f8311600181146200029e5760008415620002855750858301515b600019600386901b1c1916600185901b1785556200022a565b600085815260208120601f198616915b82811015620002cf57888601518255948401946001909101908401620002ae565b5085821015620002ee5787850151600019600388901b60f8161c191681555b5050505050600190811b01905550565b808201808211156200032057634e487b7160e01b600052601160045260246000fd5b92915050565b610baa80620003366000396000f3fe608060405234801561001057600080fd5b50600436106100ea5760003560e01c80636a6278421161008c578063a457c2d711610066578063a457c2d7146101d0578063a9059cbb146101e3578063c7cd997f146101f6578063dd62ed3e1461020957600080fd5b80636a6278421461018c57806370a082311461019f57806395d89b41146101c857600080fd5b806323b872dd116100c857806323b872dd14610142578063313ce5671461015557806339509351146101645780634c19c6611461017757600080fd5b806306fdde03146100ef578063095ea7b31461010d57806318160ddd14610130575b600080fd5b6100f761021c565b604051610104919061097a565b60405180910390f35b61012061011b3660046109e4565b6102ae565b6040519015158152602001610104565b6002545b604051908152602001610104565b610120610150366004610a0e565b6102c8565b60405160128152602001610104565b6101206101723660046109e4565b6102ec565b61018a610185366004610a4a565b61030e565b005b61018a61019a366004610a7b565b610365565b6101346101ad366004610a7b565b6001600160a01b031660009081526020819052604090205490565b6100f7610487565b6101206101de3660046109e4565b610496565b6101206101f13660046109e4565b610511565b61018a610204366004610a96565b61051f565b610134610217366004610aaf565b61054e565b60606003805461022b90610ae2565b80601f016020809104026020016040519081016040528092919081815260200182805461025790610ae2565b80156102a45780601f10610279576101008083540402835291602001916102a4565b820191906000526020600020905b81548152906001019060200180831161028757829003601f168201915b5050505050905090565b6000336102bc818585610579565b60019150505b92915050565b6000336102d685828561069d565b6102e1858585610717565b506001949350505050565b6000336102bc8185856102ff838361054e565b6103099190610b1c565b610579565b6005546001600160a01b031633146103415760405162461bcd60e51b815260040161033890610b3d565b60405180910390fd5b6007805467ffffffffffffffff191667ffffffffffffffff92909216919091179055565b6005546001600160a01b0316331461038f5760405162461bcd60e51b815260040161033890610b3d565b6000600654116103e15760405162461bcd60e51b815260206004820152601760248201527f4d696e74696e67206973206e6f7420656e61626c65642e0000000000000000006044820152606401610338565b6001600160a01b03811660009081526008602052604090205442116104485760405162461bcd60e51b815260206004820152601f60248201527f596f752063616e6e6f74206d696e7420747769636520696e206120726f772e006044820152606401610338565b610454816006546108bb565b60075461046b9067ffffffffffffffff1642610b1c565b6001600160a01b03909116600090815260086020526040902055565b60606004805461022b90610ae2565b600033816104a4828661054e565b9050838110156105045760405162461bcd60e51b815260206004820152602560248201527f45524332303a2064656372656173656420616c6c6f77616e63652062656c6f77604482015264207a65726f60d81b6064820152608401610338565b6102e18286868403610579565b6000336102bc818585610717565b6005546001600160a01b031633146105495760405162461bcd60e51b815260040161033890610b3d565b600655565b6001600160a01b03918216600090815260016020908152604080832093909416825291909152205490565b6001600160a01b0383166105db5760405162461bcd60e51b8152602060048201526024808201527f45524332303a20617070726f76652066726f6d20746865207a65726f206164646044820152637265737360e01b6064820152608401610338565b6001600160a01b03821661063c5760405162461bcd60e51b815260206004820152602260248201527f45524332303a20617070726f766520746f20746865207a65726f206164647265604482015261737360f01b6064820152608401610338565b6001600160a01b0383811660008181526001602090815260408083209487168084529482529182902085905590518481527f8c5be1e5ebec7d5bd14f71427d1e84f3dd0314c0f7b2291e5b200ac8c7c3b925910160405180910390a3505050565b60006106a9848461054e565b9050600019811461071157818110156107045760405162461bcd60e51b815260206004820152601d60248201527f45524332303a20696e73756666696369656e7420616c6c6f77616e63650000006044820152606401610338565b6107118484848403610579565b50505050565b6001600160a01b03831661077b5760405162461bcd60e51b815260206004820152602560248201527f45524332303a207472616e736665722066726f6d20746865207a65726f206164604482015264647265737360d81b6064820152608401610338565b6001600160a01b0382166107dd5760405162461bcd60e51b815260206004820152602360248201527f45524332303a207472616e7366657220746f20746865207a65726f206164647260448201526265737360e81b6064820152608401610338565b6001600160a01b038316600090815260208190526040902054818110156108555760405162461bcd60e51b815260206004820152602660248201527f45524332303a207472616e7366657220616d6f756e7420657863656564732062604482015265616c616e636560d01b6064820152608401610338565b6001600160a01b03848116600081815260208181526040808320878703905593871680835291849020805487019055925185815290927fddf252ad1be2c89b69c2b068fc378daa952ba7f163c4a11628f55a4df523b3ef910160405180910390a3610711565b6001600160a01b0382166109115760405162461bcd60e51b815260206004820152601f60248201527f45524332303a206d696e7420746f20746865207a65726f2061646472657373006044820152606401610338565b80600260008282546109239190610b1c565b90915550506001600160a01b038216600081815260208181526040808320805486019055518481527fddf252ad1be2c89b69c2b068fc378daa952ba7f163c4a11628f55a4df523b3ef910160405180910390a35050565b600060208083528351808285015260005b818110156109a75785810183015185820160400152820161098b565b506000604082860101526040601f19601f8301168501019250505092915050565b80356001600160a01b03811681146109df57600080fd5b919050565b600080604083850312156109f757600080fd5b610a00836109c8565b946020939093013593505050565b600080600060608486031215610a2357600080fd5b610a2c846109c8565b9250610a3a602085016109c8565b9150604084013590509250925092565b600060208284031215610a5c57600080fd5b813567ffffffffffffffff81168114610a7457600080fd5b9392505050565b600060208284031215610a8d57600080fd5b610a74826109c8565b600060208284031215610aa857600080fd5b5035919050565b60008060408385031215610ac257600080fd5b610acb836109c8565b9150610ad9602084016109c8565b90509250929050565b600181811c90821680610af657607f821691505b602082108103610b1657634e487b7160e01b600052602260045260246000fd5b50919050565b808201808211156102c257634e487b7160e01b600052601160045260246000fd5b6020808252601b908201527f596f7520646f206e6f742068617665207065726d697373696f6e2e000000000060408201526060019056fea264697066735822122076f46000f32077f90c0a484e2e18d61fbfdda2db157145205e81cab90378495f64736f6c63430008110033",
  "immutableReferences": {},
  "source": "// SPDX-License-Identifier: MIT\r\npragma solidity ^0.8.17;\r\n\r\nimport \"../node_modules/@openzeppelin/contracts/token/ERC20/ERC20.sol\";\r\n\r\ncontract ProtoCoin is ERC20 {\r\n    address private _owner;\r\n    uint256 private _mintAmount = 0;\r\n    uint64 private _mintDelay = 60 * 60 * 24; //1 day in seconds\r\n\r\n    mapping(address => uint256) private nextMint;\r\n\r\n    constructor() ERC20(\"New ProtoCoin\", \"NPC\") {\r\n        _owner = msg.sender;\r\n        _mint(msg.sender, 10000000 * 10**18);\r\n    }\r\n\r\n    function mint(address to) public restricted {\r\n        require(_mintAmount > 0, \"Minting is not enabled.\");\r\n        require(\r\n            block.timestamp > nextMint[to],\r\n            \"You cannot mint twice in a row.\"\r\n        );\r\n        _mint(to, _mintAmount);\r\n\r\n        nextMint[to] = block.timestamp + _mintDelay;\r\n    }\r\n\r\n    function setMintAmount(uint256 newAmount) public restricted {\r\n        _mintAmount = newAmount;\r\n    }\r\n\r\n    function setMintDelay(uint64 delayInSeconds) public restricted {\r\n        _mintDelay = delayInSeconds;\r\n    }\r\n\r\n    modifier restricted() {\r\n        require(_owner == msg.sender, \"You do not have permission.\");\r\n        _;\r\n    }\r\n}",
  "sourcePath": "D:\\workspace\\WEB3-BLOCKCHAIN-Projects\\protocoin-BEP20\\contracts\\ProtoCoin.sol",
  "compiler": {
    "name": "solc",
    "version": "0.8.17+commit.8df45f5f.Emscripten.clang"
  },
  "schemaVersion": "3.4.13",
  "updatedAt": "2023-05-12T00:24:28.137Z",
  "networkType": "ethereum",
  "devdoc": {
    "kind": "dev",
    "methods": {
      "allowance(address,address)": {
        "details": "See {IERC20-allowance}."
      },
      "approve(address,uint256)": {
        "details": "See {IERC20-approve}. NOTE: If `amount` is the maximum `uint256`, the allowance is not updated on `transferFrom`. This is semantically equivalent to an infinite approval. Requirements: - `spender` cannot be the zero address."
      },
      "balanceOf(address)": {
        "details": "See {IERC20-balanceOf}."
      },
      "decimals()": {
        "details": "Returns the number of decimals used to get its user representation. For example, if `decimals` equals `2`, a balance of `505` tokens should be displayed to a user as `5.05` (`505 / 10 ** 2`). Tokens usually opt for a value of 18, imitating the relationship between Ether and Wei. This is the value {ERC20} uses, unless this function is overridden; NOTE: This information is only used for _display_ purposes: it in no way affects any of the arithmetic of the contract, including {IERC20-balanceOf} and {IERC20-transfer}."
      },
      "decreaseAllowance(address,uint256)": {
        "details": "Atomically decreases the allowance granted to `spender` by the caller. This is an alternative to {approve} that can be used as a mitigation for problems described in {IERC20-approve}. Emits an {Approval} event indicating the updated allowance. Requirements: - `spender` cannot be the zero address. - `spender` must have allowance for the caller of at least `subtractedValue`."
      },
      "increaseAllowance(address,uint256)": {
        "details": "Atomically increases the allowance granted to `spender` by the caller. This is an alternative to {approve} that can be used as a mitigation for problems described in {IERC20-approve}. Emits an {Approval} event indicating the updated allowance. Requirements: - `spender` cannot be the zero address."
      },
      "name()": {
        "details": "Returns the name of the token."
      },
      "symbol()": {
        "details": "Returns the symbol of the token, usually a shorter version of the name."
      },
      "totalSupply()": {
        "details": "See {IERC20-totalSupply}."
      },
      "transfer(address,uint256)": {
        "details": "See {IERC20-transfer}. Requirements: - `to` cannot be the zero address. - the caller must have a balance of at least `amount`."
      },
      "transferFrom(address,address,uint256)": {
        "details": "See {IERC20-transferFrom}. Emits an {Approval} event indicating the updated allowance. This is not required by the EIP. See the note at the beginning of {ERC20}. NOTE: Does not update the allowance if the current allowance is the maximum `uint256`. Requirements: - `from` and `to` cannot be the zero address. - `from` must have a balance of at least `amount`. - the caller must have allowance for ``from``'s tokens of at least `amount`."
      }
    },
    "version": 1
  },
  "userdoc": {
    "kind": "user",
    "methods": {},
    "version": 1
  }
}