{
  "contractName": "ProtoCoin",
  "abi": [
    {
      "inputs": [],
      "stateMutability": "nonpayable",
      "type": "constructor"
    },
    {
      "inputs": [],
      "name": "decimals",
      "outputs": [
        {
          "internalType": "uint8",
          "name": "",
          "type": "uint8"
        }
      ],
      "stateMutability": "view",
      "type": "function"
    },
    {
      "inputs": [],
      "name": "name",
      "outputs": [
        {
          "internalType": "string",
          "name": "",
          "type": "string"
        }
      ],
      "stateMutability": "view",
      "type": "function"
    },
    {
      "inputs": [],
      "name": "symbol",
      "outputs": [
        {
          "internalType": "string",
          "name": "",
          "type": "string"
        }
      ],
      "stateMutability": "view",
      "type": "function"
    },
    {
      "inputs": [],
      "name": "totalSupply",
      "outputs": [
        {
          "internalType": "uint256",
          "name": "",
          "type": "uint256"
        }
      ],
      "stateMutability": "view",
      "type": "function"
    },
    {
      "inputs": [
        {
          "internalType": "address",
          "name": "_owner",
          "type": "address"
        }
      ],
      "name": "balanceOf",
      "outputs": [
        {
          "internalType": "uint256",
          "name": "balance",
          "type": "uint256"
        }
      ],
      "stateMutability": "view",
      "type": "function"
    }
  ],
  "bytecode": "0x60c06040526009608090815268283937ba37a1b7b4b760b91b60a052600090610028908261013f565b5060408051808201909152600381526250524360e81b6020820152600190610050908261013f565b506002805460ff1916601290811790915561006c90600a6102fa565b610078906103e8610310565b60035534801561008757600080fd5b5060035433600090815260046020526040902055610327565b634e487b7160e01b600052604160045260246000fd5b600181811c908216806100ca57607f821691505b6020821081036100ea57634e487b7160e01b600052602260045260246000fd5b50919050565b601f82111561013a57600081815260208120601f850160051c810160208610156101175750805b601f850160051c820191505b8181101561013657828155600101610123565b5050505b505050565b81516001600160401b03811115610158576101586100a0565b61016c8161016684546100b6565b846100f0565b602080601f8311600181146101a157600084156101895750858301515b600019600386901b1c1916600185901b178555610136565b600085815260208120601f198616915b828110156101d0578886015182559484019460019091019084016101b1565b50858210156101ee5787850151600019600388901b60f8161c191681555b5050505050600190811b01905550565b634e487b7160e01b600052601160045260246000fd5b600181815b8085111561024f578160001904821115610235576102356101fe565b8085161561024257918102915b93841c9390800290610219565b509250929050565b600082610266575060016102f4565b81610273575060006102f4565b81600181146102895760028114610293576102af565b60019150506102f4565b60ff8411156102a4576102a46101fe565b50506001821b6102f4565b5060208310610133831016604e8410600b84101617156102d2575081810a6102f4565b6102dc8383610214565b80600019048211156102f0576102f06101fe565b0290505b92915050565b600061030960ff841683610257565b9392505050565b80820281158282048414176102f4576102f46101fe565b61026a806103366000396000f3fe608060405234801561001057600080fd5b50600436106100575760003560e01c806306fdde031461005c57806318160ddd1461007a578063313ce5671461009157806370a08231146100b057806395d89b41146100d9575b600080fd5b6100646100e1565b604051610071919061017c565b60405180910390f35b61008360035481565b604051908152602001610071565b60025461009e9060ff1681565b60405160ff9091168152602001610071565b6100836100be3660046101ca565b6001600160a01b031660009081526004602052604090205490565b61006461016f565b600080546100ee906101fa565b80601f016020809104026020016040519081016040528092919081815260200182805461011a906101fa565b80156101675780601f1061013c57610100808354040283529160200191610167565b820191906000526020600020905b81548152906001019060200180831161014a57829003601f168201915b505050505081565b600180546100ee906101fa565b600060208083528351808285015260005b818110156101a95785810183015185820160400152820161018d565b506000604082860101526040601f19601f8301168501019250505092915050565b6000602082840312156101dc57600080fd5b81356001600160a01b03811681146101f357600080fd5b9392505050565b600181811c9082168061020e57607f821691505b60208210810361022e57634e487b7160e01b600052602260045260246000fd5b5091905056fea26469706673582212201851e5b82b2844a5f0c5189c1bf24e05ca3f19abd062eee2a972ec7060c3730264736f6c63430008130033",
  "immutableReferences": {},
  "source": "// SPDX-License-Identifier: MIT\n\npragma solidity ^0.8.19;\n\ncontract ProtoCoin {\n\tstring public name = \"ProtoCoin\";\n\tstring public symbol = \"PRC\";\n\tuint8 public decimals = 18;\n\tuint256 public totalSupply = 1000 * 10 ** decimals;\n\n\tmapping(address => uint256) private _balances;\n\n\tconstructor() {\n\t\t_balances[msg.sender] = totalSupply;\n\t}\n\n\tfunction balanceOf(address _owner) public view returns(uint256 balance) {\n\t\treturn _balances[_owner];\n\t}\n}\n",
  "sourcePath": "D:\\workspace\\WEB3-BLOCKCHAIN-Projects\\protocoin\\contracts\\ProtoCoin.sol",
  "compiler": {
    "name": "solc",
    "version": "0.8.19+commit.7dd6d404.Emscripten.clang"
  },
  "schemaVersion": "3.4.13",
  "updatedAt": "2023-05-10T01:11:57.181Z",
  "devdoc": {
    "kind": "dev",
    "methods": {},
    "version": 1
  },
  "userdoc": {
    "kind": "user",
    "methods": {},
    "version": 1
  }
}